:020000040000FA
:100000000C9475030C949D030C949D030C949D0318
:100010000C949D030C949D030C949D030C949D03E0
:100020000C949D030C949D030C949D030C949D03D0
:100030000C949D030C949D030C949D030C949D03C0
:100040000C94E9270C949D030C94B7270C949127EA
:100050000C949D030C949D030C949D030C949D03A0
:100060000C949D030C949D0300407A10F35A00A059
:10007000724E18090010A5D4E80000E87648170071
:1000800000E40B54020000CA9A3B000000E1F505B1
:10009000000080969800000040420F000000A086FB
:1000A00001000000102700000000E803000000002D
:1000B0006400000000000A000000000001000000D1
:1000C00000002C76D888DC674F0823DFC1DFAE59EB
:1000D000E1B1B796E5E3E453C63AE651997696E87E
:1000E000E6C28426EB898C9B62ED407C6FFCEFBC02
:1000F0009C9F40F2BAA56FA5F490055A2AF75C932D
:100100006B6CF9676DC11BFCE0E40D47FEF520E662
:10011000B500D0ED902E0300943577050080841E45
:10012000080000204E0A000000C80C333333330FA0
:10013000986E12831141EF8D2114893BE65516CF3D
:10014000FEE6DB18D1844B381BF77C1D901DA4BB49
:10015000E424203284725E228100C9F124ECA1E5FE
:100160003D2700000000250028002B0000000008AB
:10017000000201000003040700000000000000006E
:1001800000000000240027002A004602000000FFB3
:100190000800053E5B4F5B3E053E6B4F6B3E051C0A
:1001A0003E7C3E1C05183C7E3C18051C577D571CA8
:1001B000051C5E7F5E1C0400183C1805FFE7C3E7C2
:1001C000FF040018241805FFE7DBE7FF0530483A75
:1001D000060E05262979292605407F0505070540D5
:1001E0007F05253F055A3CE73C5A057F3E1C1C080D
:1001F00005081C1C3E7F0514227F221405FFFFFF0B
:10020000FFFF05F0F0F0F0F003FFFFFF0500000036
:10021000FFFF050F0F0F0F0F0508047E04080510E0
:10022000207E20100508082A1C0805081C2A08083A
:1002300005AA005500AA05AA55AA55AA0530383EB8
:10024000383005060E3E0E06020000015F0307006F
:100250000705147F147F1405444AFF4A32056313CF
:100260000864630536494936480107033E414103A6
:1002700041413E05082A1C2A080508083E080802D4
:1002800060E00408080808026060056010080403C4
:10029000053E5149453E0304027F057149494946DF
:1002A000054149494936050F0808087F054F494966
:1002B0004931053E4949493005030101017F0536B1
:1002C0004949493605064949493E026C6C026CECC5
:1002D00003081422041414141403221408050159E9
:1002E000090906053E415D594E057E0909097E054D
:1002F0007F49494936053E41414141057F414141E0
:100300003E057F49494941057F09090901053E41EB
:10031000414979057F0808087F03417F4105304145
:1003200041413F057F08142241057F404040400580
:100330007F020C027F057F0408107F053E4141418A
:100340003E057F09090906053E4141617E057F0999
:100350001929460546494949310501017F01010531
:100360003F4040403F051F2040201F053F40384090
:100370003F05631408146305030478040305615101
:10038000494543037F41410503040810600341418F
:100390007F050402010204048080808003010204BE
:1003A000043844447C047F444438043844444404BE
:1003B0003844447F043854545804047E050104181A
:1003C000A4A47C047F040478017D0384857C047FDD
:1003D000102844017F057C04780478047C040478A8
:1003E000043844443804FC24241804182424FC044D
:1003F0007C040408045854543403047F04043C402F
:10040000407C041C20407C053C4030403C046C1087
:10041000106C041CA0A07C046454544C04083641A5
:1004200041017F04414136080402010201057F4178
:1004300041417F053E5555554105384444384405F2
:100440007C2A2A3E14057E0202060605027E027EF2
:1004500002056355494163053844443C0405407E28
:10046000201E200506027E02020863130864630052
:100470006060052A2A2A2A2A03514A4403444A5121
:10048000050000FF010303E080FF05361236243625
:1004900003020502021818021010053040FF010186
:1004A000041F01011E000000000901017F017F02FD
:1004B0000C027F0000000000000100017D041824F0
:1004C0007E2404447E454105221C141C2205012A79
:1004D0007C2A010177044E55553903020002077E3C
:1004E00081BDA5A5817E0326292F0508142A142283
:1004F000040808081803080808077E81BD95A9812B
:100500007E0501010101010302050203242E2403DB
:100510001915120315150A02020104F82040780586
:1005200006097F017F021818040080A0C003121F73
:1005300010032629260522142A140808402F100823
:10054000041E117C08402F10080462554C091555F3
:100550003F1008041E117C053048484D40057815B1
:10056000161478057814161578057A1514157A0579
:10057000781615167905781514157805781415145C
:1005800078077E09097F494941059EA1612121051E
:100590007C54554644057C54564544057E55544587
:1005A00046057C5554454403457E4403447E45033B
:1005B000467D4603457C4505087F49413E057C0A4A
:1005C00011227D05384445463805384446453805EE
:1005D0003A4544453A053846454639053845444587
:1005E00038052214081422057C625A463E053C4018
:1005F00041423C053C4042413C053C4241423C05B5
:100600003C4140413C0502047A0502043F12120CB1
:10061000057E49494E30043845467C043844467DC1
:10062000043846457E043A45467D043845447D04F9
:10063000304A4D7A0720545438545458049CA262CE
:100640002204385556580438545659043856555AC9
:10065000043855545902017A027A010302790203DF
:1006600002780204304B4B3C047A090A7104304989
:100670004A300430484A3104304A49320432494A47
:100680003104394444390508082A08080438544C10
:100690003804384142780438404279043842417A7B
:1006A000043A40407A0418A0A27904FC28281004D7
:1006B0001AA0A07A000000002300260029000404EC
:1006C00004040404040402020202020203030303FA
:1006D00003030102040810204080010204081020D6
:1006E0000102040810203328C72A11241FBECFEFAF
:1006F000D8E0DEBFCDBF13E0A0E0B1E0E8EEF4E665
:1007000002C005900D92A033B107D9F725E0A0E310
:10071000B3E001C01D92A335B207E1F713E0C4E7CF
:10072000D3E004C02197FE010E945930C337D1079E
:10073000C9F70E949D280C9467320C940000CF9258
:10074000DF92EF92FF920F931F93FC0180A5882305
:1007500031F0A5A1B6A19D967C936E939C9780A540
:10076000882331F0A5A1B6A157965C934E93569776
:1007700080A5882371F0A5A1B6A118963C932E936D
:1007800017971A963C932E9319971C961C930E93C9
:100790001B9780A5882379F005A0F6A1E02DE11430
:1007A000F10419F4EE24E394F12CF18EE08ED38E53
:1007B000C28E168615861F910F91FF90EF90DF90E5
:1007C000CF900895829590E09C01359527953595B9
:1007D00027952373880F991F880F991F8C7C282BCE
:1007E00030E0C901959587958575220F331F2A7AC8
:1007F000822B0895CF93DF93262F2695382F70E014
:10080000680F791FFC018E2F831B821750F4819192
:1008100061507109DB019C91EF01219798838C93C2
:10082000F2CFDF91CF910895482FFC018E2F841BCA
:100830008617E0F4219130E0C9019595879585757B
:10084000220F331F2A7A822B90E09C013595279541
:10085000359527952373880F991F880F991F8C7CD6
:10086000822B8295DF0111978C93E0CF0895CF9270
:10087000DF92EF92FF92CF93DF93B0914305A0E018
:100880008111AB2F8091440590E0880F991FAC0136
:100890004C54594FC0904905D0904A05E0904B0503
:1008A000F0904C0530E020E0FA01C591D491E88148
:1008B000B90190E080E0EB23EA130AC02F5F3F4FBD
:1008C0006C157D058E059F0578F36FEF7FEFCB01EB
:1008D000DF91CF91FF90EF90DF90CF900895AF928E
:1008E000BF92CF92DF92EF92FF920F931F93CF931D
:1008F000DF936C017B018B01040F151FEB015E017F
:10090000AE18BF08C017D10759F06991D601ED9113
:10091000FC910190F081E02DC6010995892B79F7B2
:10092000C501DF91CF911F910F91FF90EF90DF9064
:10093000CF90BF90AF900895FC01538D448D252F2B
:1009400030E0842F90E0821B930B541710F0CF9669
:10095000089501970895FC01918D828D981761F09B
:10096000A28DAE0FBF2FB11D5D968C91928D9F5FB2
:100970009F73928F90E008958FEF9FEF0895FC0191
:10098000918D828D981731F0828DE80FF11D858D44
:1009900090E008958FEF9FEF0895FC01918D228DD7
:1009A000892F90E0805C9F4F821B91098F7399275C
:1009B000089585E794E00E94CD0421E0892B09F495
:1009C00020E0822F089580E090E0892B29F00E949A
:1009D000D90481110C9400000895FC01A48DA80F86
:1009E000B92FB11DA35ABF4F2C91848D90E0019671
:1009F0008F739927848FA689B7892C93A089B18991
:100A00008C91837080648C93938D848D981306C031
:100A10000288F389E02D80818F7D80830895EF9295
:100A2000FF920F931F93CF93DF93EC0181E0888FA8
:100A30009B8D8C8D98131AC0E889F989808185FF78
:100A400015C09FB7F894EE89FF896083E889F9891A
:100A500080818370806480839FBF81E090E0DF911C
:100A6000CF911F910F91FF90EF900895F62E0B8D6F
:100A700010E00F5F1F4F0F731127E02E8C8D8E112A
:100A80000CC00FB607FCFACFE889F989808185FF91
:100A9000F5CFCE010E94ED04F1CFEB8DEC0FFD2FD1
:100AA000F11DE35AFF4FF0829FB7F8940B8FEA894C
:100AB000FB8980818062CFCFCF93DF93EC01888D5B
:100AC0008823B9F0AA89BB89E889F9898C9185FDC9
:100AD00003C0808186FD0DC00FB607FCF7CF8C9157
:100AE00085FFF2CF808185FFEDCFCE010E94ED041E
:100AF000E9CFDF91CF91089590E0FC01E459FE4FDA
:100B00002491FC01EE52F94F3491FC01E254F94F6B
:100B1000E491EE23C9F0222339F0233001F1A8F447
:100B2000213019F1223029F1F0E0EE0FFF1FEE59CC
:100B3000FE4FA591B4918FB7F894EC91611126C046
:100B400030953E233C938FBF08952730A9F028307D
:100B5000C9F0243049F7809180008F7D03C08091D7
:100B600080008F7780938000DFCF84B58F7784BD3E
:100B7000DBCF84B58F7DFBCF8091B0008F778093E2
:100B8000B000D2CF8091B0008F7DF9CF3E2BDACF6D
:100B9000CF93DF9390E0FC01EE52F94F2491825401
:100BA000994FFC0184918823D1F090E0880F991F20
:100BB000FC01E058FE4FA591B491FC01EE59FE4FA7
:100BC000C591D491623071F49FB7F8943C91822F13
:100BD000809583238C93E8812E2B28839FBFDF9100
:100BE000CF9108958FB7F894EC912E2B2C938FBF53
:100BF000F6CF3FB7F8948091440390914503A091BC
:100C00004603B091470326B5A89B05C02F3F19F0B6
:100C10000196A11DB11D3FBFBA2FA92F982F88277C
:100C2000BC01CD01620F711D811D911D42E0660F57
:100C3000771F881F991F4A95D1F708958F929F9229
:100C4000AF92BF92CF92DF92EF92FF924B015C0185
:100C50000E94F9056B017C010E94F9056C197D0960
:100C60008E099F09683E734081059105A8F321E034
:100C7000821A9108A108B10888EEC80E83E0D81E38
:100C8000E11CF11C81149104A104B10429F7FF9027
:100C9000EF90DF90CF90BF90AF909F908F9008958E
:100CA0002FB7F89460914003709141038091420303
:100CB000909143032FBF0895CF92DF92EF92FF925E
:100CC0000F931F93CF93DF93CDB7DEB7C054D140BE
:100CD0000FB6F894DEBF0FBECDBF0E945006009144
:100CE00045051091460520914705309148056B0157
:100CF0007C01C01AD10AE20AF30A97018601003D7D
:100D000017402105310590F480914D05C05CDE4F00
:100D10000FB6F894DEBF0FBECDBFDF91CF911F910C
:100D20000F91FF90EF90DF90CF900895609345056D
:100D300070934605809347059093480510924005AF
:100D400010923F0510923E0510923D0510923C0511
:100D500062E0809141050E94C80561E070E080E09A
:100D600090E00E941E0661E0809141050E94C80546
:100D700060E0809141050E947C058091420585518B
:100D8000823020F58BE291E10197F1F762E08091EA
:100D900041050E94C80580914E0590E08230910582
:100DA00038F0880F991F880F991F05970197F1F761
:100DB000F89480E00E9437046F3F7F4F8F4F9F4F22
:100DC00061F410924D05789480E0A0CF64E170E06A
:100DD00080E090E00E941E06D9CF81E00E94370497
:100DE0006F3F7F4F8F4F9F4F61F38E010F5F1F4FFC
:100DF0006E012FEBC21A2EEFD20A780180E00E941A
:100E00003704F701608371838283938381E00E94BA
:100E10003704F7016483758386839783F8E0EF0EC8
:100E2000F11CEC14FD0451F7789430E020E0F80157
:100E3000C080D180E280F3804481558166817781D2
:100E4000FFEFCF16DF06EF06FF0631F04F3F8FEFC3
:100E500058076807780719F410924D05B5CFF901C6
:100E600083E0F595E7958A95E1F7E45CFA4F808198
:100E7000880FC416D506E606F70610F180832F5FAB
:100E80003F4F085F1F4F2832310589F640914005DA
:100E900020913C0580913D05280F3327331F809119
:100EA0003E05280F311D80913F05820F932F911D24
:100EB00099274817190681F681E080934D0526CFC2
:100EC0008160DCCFCF92DF92EF92FF921F93CF939E
:100ED000DF93DC0158961C92589788E059968C93C2
:100EE00059975A961C925A975C961C921E925B9741
:100EF0008FEF90E05E969C938E935D9790961C92F8
:100F00001E925F9756968D919C915797009709F482
:100F100078C0FC012491263409F031C03196E49167
:100F2000E13009F453C022E030E0E23021F5FC0169
:100F3000329624913196E49130E0322F22272E0F01
:100F4000311D5C963C932E935B97FC013496249163
:100F50003196E49130E0322F22272E0F311D5E961C
:100F60003C932E935D97FC013696E4915996EC9351
:100F7000599727E030E090963C932E935F975F96C9
:100F8000CD90DC909097F12CE12C5B962D913C91CB
:100F90005C975D96CD91DC915E9710E0C217D30708
:100FA00070F1FC01EC0DFD1D4491141708F4142F91
:100FB00050E070E060E04F5F5F4F6F4F7F4FC40EB7
:100FC000D51EE61EF71E2F5F3F4FE8CFFC0132967D
:100FD000E491F0E05C96FC93EE935B97FC01339612
:100FE000E491F0E05E96FC93EE935D97FC013496FD
:100FF000E4915996EC93599725E030E0BCCF5A968E
:101000001C93DF91CF911F91FF90EF90DF90CF90D5
:101010000895FC018385681738F52485358579E0C6
:10102000679F200D311D1124848150E09381992305
:1010300071F0882331F087E090E0FC01E41BF50BB0
:10104000AF01240F351FF90180810C94E20388233E
:1010500031F087E090E0BC01641B750BAB01240FFD
:10106000351FF9018081089580E008958F929F9245
:10107000AF92BF92CF92DF92EF92FF92CF93DF9326
:10108000FC01242F30E08381882309F447C087E0E6
:1010900090E0821B930B91E001C0990F8A95EAF7CB
:1010A0008385681708F040C024853585A90189E04B
:1010B000689F400D511D1124BA01E48130E020E009
:1010C00080E0A7E0B0E0C12CD12C7601C394F22FD0
:1010D000AD01421B530BE11101C0A901460F571F7F
:1010E000EA014881492351F04601570104C0880CA8
:1010F000991CAA1CBB1CFA95D2F788292F5F3F4F79
:101100002830310521F7DF91CF91FF90EF90DF90EC
:10111000CF90BF90AF909F908F90089591E001C0C5
:10112000990F4A95EAF7BCCF80E0EDCFFC01228110
:1011300021110C9436080C940908462F47706695C7
:10114000669566950C949608FC01848D90A1A6A5E1
:10115000B7A591FD15C0882381F0808D918D0597ED
:10116000A9F481E024A535A52A173B0709F080E002
:1011700080AB1197B7A7A6A70895828D938DEFCF67
:10118000882379F0808D918D059759F7CD010196CF
:1011900097A786A781E011969C91911180E080AB82
:1011A0000895828D938DF0CFFC01868997898230D6
:1011B000910591F42389348936A325A331A720A76B
:1011C0008230910561F42189328933A722A70297E1
:1011D00049F08FEF87A3089521893289EDCF2389C4
:1011E0003489F3CF81E0F6CFCF93DF9300D0CDB732
:1011F000DEB769831A82DC01ED91FC910084F185F0
:10120000E02DBE016F5F7F4F099581E090E00F9068
:101210000F90DF91CF910895089590E080E00895B8
:10122000CF92DF92EF92FF920F931F93CF93DF93B2
:10123000EC0188858823A1F080913E03882361F02A
:101240008FB7F89490913E03913041F59DB3909300
:101250003D039DB39DBB8FBF80E58CBD81E08DBDFF
:1012600060E08F810E947C0588858823D1F030E082
:1012700020E08B8590E0880F991F28173907C8F563
:10128000EE85FF85E20FF31F80818EBD00000DB457
:1012900007FEFDCF8EB52F5F3F4FEBCF80933D0311
:1012A000DBCF10E000E08B8590E0880F991F0817D6
:1012B0001907F8F4EE85FF85E00FF11FE080DE806E
:1012C000CD8088E0F82E6E2D661F6627661F8C2D58
:1012D0000E947C05EE0C61E08D2D0E947C0560E093
:1012E0008D2D0E947C05FA94F110EDCF0F5F1F4FFA
:1012F000DACF61E08F810E947C058885882371F0B8
:1013000080913E03882351F09FB7F89420913E03CB
:1013100080913D03213059F48DBB9FBFDF91CF9168
:101320001F910F91FF90EF90DF90CF9008958FBFA6
:10133000F5CF0F931F93CF93DF93EC0188819981B1
:10134000009759F02A813B812617370730F081E05A
:10135000DF91CF911F910F9108958B016F5F7F4FA8
:101360000E948431009759F0998388831B830A83F4
:101370002C813D81232B59F7FC011082E8CF80E0BE
:10138000E7CFEF92FF920F931F93CF93DF936115F7
:10139000710541F480E0DF91CF911F910F91FF9093
:1013A000EF90089541155105B1F07B01EC010C81DE
:1013B0001D81040F151FB8010E949909882351F35C
:1013C000288139818C819D81B701820F931F0E94F2
:1013D00051321D830C8381E0DECFCF93DF93EC018C
:1013E00088819981009711F00E94FB301982188240
:1013F0001D821C821B821A82DF91CF910895CF93A8
:10140000DF93EC01FB0101900020E9F73197AF0178
:10141000461B570B0E94C109811103C0CE010E94D7
:10142000ED09CE01DF91CF910895CF93DF93EC01C9
:10143000FB0144815581608171810E94C109811144
:1014400003C0CE010E94ED09CE01DF91CF91089536
:10145000EF92FF920F931F93CF93DF93EC017B01E9
:101460008A01BA010E94990981110BC0CE010E9424
:10147000ED09CE01DF91CF911F910F91FF90EF9079
:1014800008951D830C83B701888199810E94513290
:10149000F0CFEF92FF920F931F93CF93DF93CDB7CF
:1014A000DEB7A1970FB6F894DEBF0FBECDBF7C01AB
:1014B000CB01BA01F70111821082138212821582C8
:1014C00014828E010F5F1F4F20E042E00E94292B03
:1014D0000097C9F0FC0101900020E9F73197AF01B6
:1014E000481B590BBC01C7010E94280AA1960FB6E0
:1014F000F894DEBF0FBECDBFDF91CF911F910F914A
:10150000FF90EF900895C7010E94ED09EFCFFC0115
:1015100080819181009711F00C94FB3008951F9306
:10152000CF93DF93EC01A881B9815A961C918EA9C3
:10153000180F8BA9811768F48CA99DA9009711F049
:101540000E94FB301BAB812F90E00E945F309DAB6F
:101550008CABDF91CF911F910895FC01438550E042
:10156000440F551F70E060E0868597850C944A32E1
:10157000BF92CF92DF92EF92FF920F931F93CF9380
:10158000DF93FC012385621708F04EC0EC01F9E0FF
:101590006F9F70011124D12CC12C062F10E0BB24A9
:1015A000B394BC0CEC85FD85EE0DFF1D808590E0AD
:1015B0000C2C02C0959587950A94E2F780FF27C00E
:1015C000CE010E94AD0A8B858150990B801B910B37
:1015D000880F991F2E853F85820F931FFC01B082D3
:1015E000EC85FD85EE0DFF1DEC0DFD1D40818B850D
:1015F0008150990B801B910B880F991F2E853F8579
:10160000820F931FFC014183CE010E941009FFEF5E
:10161000CF1ADF0A88E0C816D10409F68C859D85AB
:10162000E80EF91EF7011086DF91CF911F910F91FF
:10163000FF90EF90DF90CF90BF9008950F931F938E
:10164000CF93DF93EC01162F042F822F9B819111F2
:101650000E94E20399E0199F90011124AC85BD8599
:10166000A20FB31F602F70E09C8147E050E0461B43
:10167000570B911101C0AB01A40FB51F8C93EC85E2
:10168000FD85E20FF31F20858C818823F1F047E070
:1016900050E0461B570B81E090E0A0E0B0E004C0B2
:1016A000880F991FAA1FBB1F4A95D2F7822B8087EC
:1016B0008C89882321F0612FCE010E94B80A81E035
:1016C000DF91CF911F910F91089581E090E0A0E00C
:1016D000B0E004C0880F991FAA1FBB1F0A95D2F75C
:1016E000E5CF9F92AF92BF92CF92DF92EF92FF929F
:1016F0000F931F93CF93DF93FC0189E0689FE00174
:10170000112481E090E0A0E0B0E06C017D01042EA6
:1017100004C0CC0CDD1CEE1CFF1C0A94D2F7BC2CC0
:101720007C2D709507E010E0041B110904C0880FA0
:10173000991FAA1FBB1F0A95D2F7A82E382F3095E4
:1017400090E080E0022F10E027E0E22EF12CAC01C7
:10175000A485B585AC0FBD1F248193806801082E38
:1017600002C0D594C7940A94E2F7C0FE2AC022238F
:1017700019F0A701481B590BA40FB51F2C914B2D35
:1017800091104A2D242B2C93019688309105F9F65F
:1017900084859585C80FD91F8FEF88878489882312
:1017A00019F0CF010E94B80A81E0DF91CF911F911B
:1017B0000F91FF90EF90DF90CF90BF90AF909F90F0
:1017C0000895222319F0A701481B590BA40FB51F38
:1017D0002C91472F9110432F2423D5CFFC01528108
:1017E0003385552321F0631730F40C94710B631784
:1017F00010F40C941E0B80E00895242F462F4770A0
:1018000033E0769567953A95E1F70C94EE0BFC0181
:1018100052813385552331F0631750F4483041F03D
:101820000C941E0B631720F4483011F00C94710BCC
:1018300080E00895CF92DF92EF92FF920F931F9373
:10184000CF93DF93FC01722F82815385882309F4A3
:101850005DC0651708F0BEC0283009F4BBC009E0C0
:10186000609F70011124848595858E0D9F1D50E029
:10187000A22FB0E024812223B9F127E030E0E90172
:10188000C41BD50BAE012A1B3B0B480F591FEA01A5
:101890004881820F931FEC01488384859585E70179
:1018A000C80FD91F28858481882301F147E050E0C3
:1018B0004A1B5B0B81E090E0A0E0B0E004C0880F21
:1018C000991FAA1FBB1F4A95D2F7822B888784894C
:1018D000811118C081E0DF91CF911F910F91FF908E
:1018E000EF90DF90CF9008959D01CFCF81E090E001
:1018F000A0E0B0E004C0880F991FAA1FBB1F7A9513
:10190000D2F7E3CFCF010E94B80AE4CFA42FB0E012
:101910009381992309F44FC027E030E02A1B3B0B49
:1019200091E001C0990F2A95EAF76517A0F6783083
:1019300091F2D9E06D9FA001112401E010E020E0B8
:1019400030E068017901072E04C0CC0CDD1CEE1CD0
:10195000FF1C0A94D2F7DC2DCC2DC095A7E0B0E097
:10196000A71BB10904C0000F111F221F331FAA9526
:10197000D2F7F02E009530E020E0A485B585A40FC5
:10198000B51FA20FB31F8C917381182F1923D9F0A3
:10199000711117C07D2F872B8C932F5F3F4F2830FD
:1019A000310559F784859585480F591F8FEFDA0166
:1019B00018968C938CCF91E001C0990F4A95EAF765
:1019C000B4CF7F2DE8CF711103C07C2F8723E4CFE4
:1019D000702FFCCF80E07FCF8F929F92AF92BF920B
:1019E000CF92DF92EF92FF920F931F93CF93DF93EB
:1019F000CDB7DEB728970FB6F894DEBF0FBECDBFC8
:101A00008C01D62E29E0629F70011124FA013197D2
:101A1000E730F10558F4E15FF24F0C945930620D54
:101A2000940DCA0D010E420E820EA20EDC0112961A
:101A30008C918823C1F130E020E0D8011C96ED9113
:101A4000FC911D97EE0DFF1DE20FF31F8081139691
:101A50009C91992331F190E09595879580832F5F34
:101A60003F4F2830310549F7F80184859585E80E08
:101A7000F91E8FEFD70118968C9381E028960FB648
:101A8000F894DEBF0FBECDBFDF91CF911F910F91B4
:101A9000FF90EF90DF90CF90BF90AF909F908F908E
:101AA0000895880FDBCF87E090E0D8011C96ED9178
:101AB000FC91EE0DFF1DE80FF91F20812183019796
:101AC000A0F7D2CFFC0182818823E1F030E020E052
:101AD000D8011C96ED91FC911D97EE0DFF1DE20FB4
:101AE000F31F808113969C91992341F0880F808386
:101AF0002F5F3F4F2830310559F7B6CF90E09595CD
:101B00008795F5CF81E090E0D8011C96ED91FC918E
:101B1000EE0DFF1DE80FF91F2081319720830196FC
:101B20008830910589F7A0CFFC01C2808589882380
:101B3000F9F040E0C801CC20C1F00E940908898377
:101B4000CC20C1F020E0CC24C394C20E4C2D6D2DCE
:101B5000C8010E941A0C2C2D2730A9F7298147E0D3
:101B60006D2DC8010E94070C7FCF0E943608E7CF79
:101B70001982E6CF87E090E0D8011C96ED91FC91A8
:101B8000EE0DFF1DE80FF91F2081220F2083019722
:101B900098F7E4CFFC01C28085898823D9F047E01B
:101BA000C801CC20A1F00E9409088983CC20A1F0B3
:101BB00028E0CC24CA94C20E4C2D6D2DC8010E9481
:101BC0001A0C2C2DC110F5CF298140E0C9CF0E94FD
:101BD0003608EBCF1982EACF30E020E0D8011C961E
:101BE000ED91FC91EE0DFF1DE20FF31F808190E05F
:101BF0009595879580832F5F3F4F2830310571F78A
:101C0000E3CFFC0182818823C1F0B12CA12CD80143
:101C10001C96CD90DC90CE0CDF1CCA0CDB1CF601B0
:101C200080810E94E203D6018C93BFEFAB1ABB0AFE
:101C3000E8E0AE16B10459F717CF30E020E047E0F6
:101C400050E0D8011C968D919C918E0D9F1DFC013A
:101C5000E20FF31FD080BA01621B730B860F971F30
:101C6000DC018C918083D8011C96ED91FC91EE0DE6
:101C7000FF1DE60FF71FD0822F5F3F4F2430310545
:101C800001F7F2CEFC018281882329F130E020E0C7
:101C900047E050E0D8011C968D919C918E0D9F1DC0
:101CA000FC01E20FF31FD080BA01621B730B860F99
:101CB000971FDC018C918083D8011C96ED91FC91DB
:101CC000EE0DFF1DE60FF71FD0822F5F3F4F243030
:101CD000310501F7C9CEB12CA12CF801C484D584FB
:101CE000CE0CDF1CCA0CDB1CD6018C910E94E203D7
:101CF000F6018083FFEFAF1ABF0A28E0A216B104F5
:101D000061F7B2CECE0101965C014C0187E0C82E8E
:101D10004C2D6D2DC8010E949608D4018D934D0164
:101D2000CA94BFEFCB12F4CFC12CF50121915F0112
:101D30004C2D6D2DC8010E94070CC394F8E0CF1202
:101D4000F4CF92CE90E080E0D8011C96ED91FC910A
:101D5000EE0DFF1DE80FF91F2081209520830196CD
:101D60008830910589F780CECF92DF92EF92FF9273
:101D70000F931F93CF93DF93EC01DD24D394F12CC9
:101D8000E12C01E010E0B9E0CB2ECE010E94AD0ABB
:101D900098010E2C02C0220F331F0A94E2F7E0E0F4
:101DA00090E08B85E81798F5EC9DA0011124AC8597
:101DB000BD85A40FB51F18966C9170E06223732344
:101DC000672B19F16E2F70E08150990B861B970BD2
:101DD000880F991FAE85BF85A80FB91FDC92AC850F
:101DE000BD85A40FB51FAE0DBF1DFC918B85815025
:101DF000990B861B970B880F991F4E855F85840F63
:101E0000951FDC011196FC9391E0EF5FCACF9923F7
:101E100019F0CE010E941009BFEFEB1AFB0AD39410
:101E200088E0E816F10409F0B0CF80E099E02B8556
:101E3000821748F4EC85FD85899FE00DF11D112482
:101E400010868F5FF4CFDF91CF911F910F91FF909C
:101E5000EF90DF90CF900895CF93DF93C9E078E0C3
:101E60005FEF4617B0F06C9F90011124FC01A48530
:101E7000B585A20FB31FFD01D72F1192DA95E9F7AF
:101E8000DC011C96ED91FC91E20FF31F50876F5F10
:101E9000E8CFFC012489222321F0DF91CF910C941B
:101EA000B40EDF91CF9108956F927F928F929F929F
:101EB000AF92BF92CF92DF92EF92FF920F931F9358
:101EC000CF93DF93CDB7DEB729970FB6F894DEBF77
:101ED0000FBECDBF8C01E62EF42E5901D12C461732
:101EE00008F4D5C0DC015496DC90549754961C92AB
:101EF00024303105B0F522303105C8F521303105E7
:101F000009F4DBC0D80155968C91882309F486C06A
:101F10006F2D660F660F660F695FC8010E949D08EE
:101F2000C82EAE2CB12C8F2D0F2C000C990B8A15BE
:101F30009B050CF489C050E040E06F2DC8010E9461
:101F4000EC0C99249A949F0C47E0692DC8010E94DB
:101F50009608282F40E06F2DC8010E94EE0BF92C47
:101F6000E2CF2430310561F02830310558F6A50163
:101F70006E2DC8010E94EC0CE394FE14C0F77EC0E5
:101F8000642F70E0AE2CB12C4B018A189B08BFEF78
:101F90008B1A9B0A97FE03C0EFEF8E1A9E0A959448
:101FA0008794712C29E0C22E472D50E04815590521
:101FB0000CF0CFC0F80124853585FA01EA0DFB1D30
:101FC000CE9EC001CF9E900D1124820F931FFC0165
:101FD000DE0111966C2C01900D926A94E1F7FB01E1
:101FE000E41BF50BCE9EA001CF9E500D1124F901EC
:101FF000E40FF51FDC018C2D01900D928A95E1F71D
:10200000F801A485B585A40FB51FFE0131968C2D6E
:1020100001900D928A95E1F77394C6CFF801A288DA
:10202000B388A114B10471F06F2D660F660F660FAF
:10203000695FC8010E949D08482F70E060E08F2D05
:10204000F5010995C12C6DCFD8015096ED91FC9109
:102050005197309749F055968C91811105C070E0E9
:1020600060E08E2D0995C82EB50183E0660F771FBD
:102070008A95E1F74C2DC8010E94FD0BD8015496BA
:10208000DC92DD2009F46FC0C8010E94B40E8D2DD2
:1020900029960FB6F894DEBF0FBECDBFDF91CF916A
:1020A0001F910F91FF90EF90DF90CF90BF90AF9076
:1020B0009F908F907F906F900895FC018589882371
:1020C000A9F1660F660F660FC8010E949D08C82E11
:1020D00041E050E06E2DC8010E94EC0CBB24B3948B
:1020E000BE0C40E06B2DC8010E949608282F47E0E7
:1020F0006E2DC8010E94EE0BEB2CFB1448F7D801A3
:102100005096ED91FC915197309749F055968C91EE
:10211000811105C061E070E08F2D0995C82EB8E0EF
:10212000FB9EB0011124695F7F4FA4CFA288B388C2
:10213000A114B10461F0660F660F660FC8010E941A
:102140009D08482F61E070E08E2DF5010995C12CA6
:10215000BFCF44E050E06E2DC8010E94EC0CE39428
:10216000FE14B8F78BCFDD24D39491CFCF93DF93B8
:10217000EC014CA16BA1461720F0888199810E9447
:102180002C0F8D8D882351F027E030E04CA16BA1FE
:1021900088819981DF91CF910C94540FDF91CF9179
:1021A0000895CF92DF92EF92FF920F931F93CF93F8
:1021B000DF93EC01D62EC42E790180E04617E0F0C3
:1021C0002A30310508F069C0CE010E94AD0A92E0C4
:1021D000E916F10409F453C0C0F4E114F10429F143
:1021E000F1E0EF16F10409F443C0D394CD1478F76D
:1021F000CE010E94100981E0DF91CF911F910F91D4
:10220000FF90EF90DF90CF90089583E0E816F104FF
:10221000E9F194E0E916F10441F781E001151105B7
:1022200009F480E0819599E006C081E0011511056F
:1022300009F080E09CE04D2D50E02B852150330BC0
:10224000241B350B220F331F6E857F85260F371F0A
:10225000F90190832B852150330B241B350B220F62
:10226000331F4E855F85240F351FF9018183BDCF54
:10227000802F083011050CF087E09BE0DCCF802F29
:10228000003111050CF08FE09AE0D5CF81E0011507
:10229000110509F480E09FE0CECF81E00130110507
:1022A00009F080E0FBE0EF16F10449F08C8B01307F
:1022B000110509F0A0CFCE010E94B40E9CCF8D8BEA
:1022C0009ACF0F931F93FC0161A3062F10E022E029
:1022D00030E044A163A1808191810E94D1101F91BF
:1022E0000F9108950F931F939B018A01FC01438571
:1022F000415060E00E94D1101F910F910895CF923C
:10230000DF92EF92FF920F931F93CF93DF937C01A5
:102310006B01EA01CA0101960E945F308C010097AF
:10232000F1F0AE01B6010E944132F801EC0FFD1F41
:102330001082D701ED91FC910084F185E02DB80168
:10234000C7010995C8010E94FB30CE01DF91CF91F2
:102350001F910F91FF90EF90DF90CF900895D0E004
:10236000C0E0F3CFCF92DF92EF92FF920F931F93D3
:10237000CF936C017B01C42F8901DC01D196ED91D3
:10238000FC91309709F1808191818E159F05C1F4F0
:102390000280F381E02D80818C1708F4C82F4C2F28
:1023A00050E0BF016F5F7F4FC8010E9441328C2F08
:1023B000CF911F910F91FF90EF90DF90CF900895F4
:1023C0000480F581E02DDDCFF6018081918122AD81
:1023D00033ADDC0156964D915C912417350751F0D1
:1023E0002115310511F42AE831E0FC01378B268BE9
:1023F0000E9462070115110509F448C0D6012D910C
:102400003C91F901878D90A1B0E0A0E0438D548DFF
:10241000E416F506A0F1658D768D6E157F0578F1D1
:1024200066897789FB01E80FF91FE416F50659F074
:10243000E4918E0F911DA11DB11D0196A11DB11D2D
:102440004F5F5F4FEFCF4491C41710F50196A11D68
:10245000B11DA801801B910B642F601B6C1708F045
:10246000A6CFBC01640F751FD9015696ED91FC9162
:10247000E60FF71FE491DA01ED93AD01EDCF4C2F9C
:1024800050E070E060E0C8010E944A32C0E08FCFA7
:10249000C491DCCF1F93CF93DF93EC01142F2CA9B1
:1024A0003DA94BA90E94B211112389F0882379F02C
:1024B00090E02EA9921758F42BA9821730F4ECA9BA
:1024C000FDA9E80FF11D10828F5F9F5FF2CFDF91B2
:1024D000CF911F9108950F931F93CF93DF93EC013A
:1024E0008B01EEA5FFA541E08181811101C040E093
:1024F000608170E0CE010E944A12F801808328A119
:102500009C8D21FD10C0992359F0288D398D2530DF
:10251000310581F4682F8CA99DA90E94FA030AC095
:102520002A8D3B8DF4CF9923B9F0288D398D253034
:10253000310581F788A180FF06C0F80160818CA970
:102540009DA90E941404CE010E94A40881E0DF919D
:10255000CF911F910F9108952A8D3B8DE8CF0F9356
:102560001F93CF93DF93EC01FB011082ACA5BDA5B7
:10257000BFA7AEA7109719F08C91811108C081E018
:1025800088AB80E0DF91CF911F910F91089518AA39
:102590008C8D98A191FD10C0882359F0888D998D5C
:1025A000059781F40D900020E9F71297BFA7AEA719
:1025B00009C08A8D9B8DF4CF882331F1888D998D48
:1025C000059781F7AEA5BFA541E011968C911197B3
:1025D000811101C040E08B016C9170E0CE010E943E
:1025E0004A12F801808328A19C8D21FD13C09923F4
:1025F00071F0288D398D2530310599F4682F8CA91B
:102600009DA90E94FA030DC08A8D9B8DD9CF2A8D7A
:102610003B8DF1CF992399F0288D398D25303105E7
:1026200069F788A180FF06C0F80160818CA99DA987
:102630000E941404CE010E94A40881E0A3CF2A8D39
:102640003B8DECCFCF92DF92EF92FF920F931F93CF
:10265000CF93DF93EC010E94B610C988DA887E011F
:1026600087E3E80EF11CB701CE010E94AF1219AE4C
:1026700018AE86018B899C89081719077CF18FA9F0
:1026800028AD39AD8217130611F081110AC01FAAB7
:1026900088A9811104C0B701CE010E946B1219AE46
:1026A00018AE8FA9882331F38881998148AD59AD3F
:1026B0009A012F5F3F4FECA9FDA9E40FF51F4D8D47
:1026C00039AF28AF442341F040814095B8010E94C2
:1026D000FD0B01501109CECF4081F8CFDF91CF9192
:1026E0001F910F91FF90EF90DF90CF900895FF9290
:1026F0000F931F93CF93DF93EC01F62E8D859E856C
:10270000442309F462C08430910530F5019758F1F3
:102710008D859E85059721F483E090E09E878D87C7
:10272000CE010E9422130DA11EA12FA18AA59BA557
:10273000820F911D27FD9A9580179107E1F04D8D2D
:102740004195B801888199810E94FD0B8FA1080FE6
:10275000111D87FD1A95E9CF0597D1F285E090E02C
:102760009E878D872CC0CE010E94D40883E090E024
:102770009E878D87CDCFFF2069F06DA17EA10617C2
:10278000170741F04D8D81E0482741958881998157
:102790000E94FD0B8DA19EA12FA1022E000C330BD8
:1027A0004AA55BA5420F531F8417950721F445E006
:1027B00050E05E874D87820F931F9EA38DA3DF910C
:1027C000CF911F910F91FF9008958430910500F5EE
:1027D000019700F1CE010E94221308A519A56DA151
:1027E0007EA18FA1082E000C990B9B01280F391F89
:1027F00020173107B9F04D8D4195B8018881998135
:102800000E94FD0B8FA1080F111D87FD1A95E7CFC0
:10281000059751F5CE010E94D40883E090E09E8791
:102820008D87D8CFFF2079F02AA53BA5820F931F73
:102830006817790741F04D8D81E0482741958881DF
:1028400099810E94FD0B8DA19EA12FA1022E000C4B
:10285000330B4AA55BA5420F531F8417950709F058
:10286000AACF46E050E0A5CF86E090E079CFAF92C6
:10287000BF92CF92DF92EF92FF920F931F93CF936D
:10288000DF93EC01F62E8D859E85442309F46EC0FE
:102890008430910580F50197A8F1CE010E94B61011
:1028A000CE010E942213CBA088E0C89E60011124B3
:1028B000EE24E394F11002C050E8E52E0DA11EA114
:1028C0008CA190E0019643E0880F991F4A95E1F7AB
:1028D000C816D906ACF5A880B9806C2DC5010E9438
:1028E0009D08101624F5FF2001F1880F9D8D911190
:1028F0008E290150F6CF059781F285E090E09E8702
:102900008D8729C087E090E09EA38DA310E000E0B2
:102910002BE030E04CA16BA1888199810E94D110FD
:1029200083E090E09E878D87B8CF8695DFCF482FD4
:10293000B601C5010E94FD0B8FEFC81AD80ABECFA1
:102940000115110521F485E090E09E878D870150E7
:1029500011091EA30DA3DF91CF911F910F91FF903D
:10296000EF90DF90CF90BF90AF90089584309105A5
:1029700060F5019760F10BA188E0089F80011124A8
:1029800030E8E32EF11002C0EE24E3948CA190E035
:10299000019623E0880F991F2A95E1F70817190778
:1029A000FCF4C880D980602FC6010E949D08482F82
:1029B000FF20A1F046958D8D81114E29B801C601E9
:1029C0000E94FD0B0F5F1F4FE1CF0597B1F41EA2D0
:1029D0001DA283E090E09E878D87CDCF440FEBCF83
:1029E0008DA19EA18730910521F426E030E03E873D
:1029F0002D8701969EA38DA3AECF86E090E07FCF7A
:102A0000CF92DF92EF92FF921F93CF93DF93EC016F
:102A1000D42E8D859E85662309F458C08430910597
:102A2000A8F50197D0F1CE010E9422132DA13EA15D
:102A30002830310569F1E8A4F9A481E090E001C0F3
:102A4000880F2A95EAF7182FD11010952FA18AA583
:102A50009BA5820F911D27FD9A958E159F0549F123
:102A6000C880D9806E2DC6010E949D089D8D412F82
:102A70009923E9F04095482BB701C6010E94FD0B50
:102A80008FA1E80EF11C87FDFA94E0CF059759F26B
:102A900085E090E09E878D8711C0CE010E94D4080A
:102AA0001EA21DA283E090E09E878D87BCCF4823A5
:102AB000E3CF8DA19EA101969EA38DA3DF91CF911F
:102AC0001F91FF90EF90DF90CF9008958430910593
:102AD00098F5019798F1CE010E9422138DA19EA135
:102AE00010E097FD05C011E001C0110F8A95EAF7CB
:102AF000E8A4F9A4D11010952FA18AA59BA5820F57
:102B0000911D27FD9A958E159F0531F1C880D980BA
:102B10006E2DC6010E949D089D8D412F9923D1F0F5
:102B20004095482BB701C6010E94FD0B8FA1E80E0E
:102B3000F11C87FDFA94E0CF0597C1F4CE010E9405
:102B4000D40887E090E09EA38DA383E090E09E8769
:102B50008D87C1CF4823E6CF8DA19EA197FF04C0EA
:102B600026E030E03E872D870197A6CF86E090E0F3
:102B700091CFFF920F931F93CF93DF93EC01F42E2D
:102B80008D859E85662309F444C08430910538F50F
:102B9000019760F1CE010E9422132DA13EA18AA5CA
:102BA0009BA528173907E9F008A519A58FA1082EBC
:102BB000000C990B2DA13EA14AA55BA5480F591FFA
:102BC0004017510709F464C0F11018C00217130729
:102BD000C1F48FA1080F111D87FD1A95E7CF059746
:102BE000C9F285E090E09E878D8756C0CE010E9495
:102BF000D40883E090E09E878D87CCCF021713071F
:102C000041F74D8D4195B801888199810E94FD0B56
:102C1000E0CF8430910500F5019700F1CE010E94CC
:102C2000221308A519A54AA55BA58FA1082E000CA3
:102C3000990B2DA13EA1BA01680F791F601771078A
:102C400001F1F11013C00217130799F48FA1080FB7
:102C5000111D87FD1A95E7CF059721F5CE010E943A
:102C6000D40883E090E09E878D87D8CF02171307A2
:102C700069F74D8D4195B801888199810E94FD0BBE
:102C8000E5CF2417350724F446E050E05E874D87F2
:102C9000820F931F9EA38DA3DF91CF911F910F9160
:102CA000FF90089586E090E09ECFEF92FF920F9301
:102CB0001F93CF93DF93EC01162F8D859E854423C0
:102CC00009F488C08330910528F00397B1F185E0BD
:102CD00090E02AC069897A898B899C899B01281B8D
:102CE000390BC90137FD01969595879501969EA3ED
:102CF0008DA31123B9F04D8D11E041274195681B3B
:102D0000790B888199810E94FD0B4D8D412741955A
:102D10006B897C898DA19EA1680F791F888199811B
:102D20000E94FD0B83E090E09E878D87DF91CF911D
:102D30001F910F91FF90EF9008958DA19EA197FD97
:102D4000C6CFCE010E942213F12CE12C6DA17EA1F1
:102D5000E616F706C4F44D8D41956B897C896E0D9E
:102D60007F1D888199810E94FD0B4D8D4195698958
:102D70007A896E197F09888199810E94FD0B3FEF46
:102D8000E31AF30AE3CF615071097EA36DA3112307
:102D900069F277FDCBCF4D8D11E0412741958B89AD
:102DA0009C89680F791F888199810E94FD0B4D8D48
:102DB0004127419569897A898DA19EA1681B790B6C
:102DC00088819981DF91CF911F910F91FF90EF90B2
:102DD0000C94FD0B8330910531F108F077C0019719
:102DE00008F477C0CE010E94B610CE010E942213D3
:102DF0001EA21DA2112399F04D8D01E0402741959F
:102E000069897A89888199810E94FD0B4D8D4027BF
:102E100041956B897C89888199810E94FD0B83E0B3
:102E200090E09E878D872DA13EA169897A898B8943
:102E30009C89AB01481B590BCA0157FD019695951A
:102E40008795821793070CF444C04D8D4195621B02
:102E5000730B888199810E94FD0B4D8D41956B8983
:102E60007C898DA19EA1680F791F888199810E941C
:102E7000FD0B2DA13EA12F5F3F4F3EA32DA311239C
:102E800009F454CF69897A898B899C89AB01481BE5
:102E9000590BCA0157FD019695958795821793079F
:102EA0000CF444CF4D8D11E041274195621B730B0B
:102EB000888199810E94FD0B4D8D412741956B8939
:102EC0007C898DA19EA1680F791F7ACF059709F49F
:102ED00089CF86E090E028CFCF92DF92EF92FF92E9
:102EE0000F931F93CF93DF93EC01162F8D859E8553
:102EF000442309F458C084309105B0F5019708F4D3
:102F00003AC0CE010E9422132DA13EA190E080E0A4
:102F1000111102C08FEF90E02817390739F1E8A4AA
:102F2000F9A42FA18AA59BA5820F911D27FD9A9533
:102F30008E159F0581F10D8DC880D9806E2DC6013B
:102F40000E949D08011180954DA1111140954823C3
:102F500001114095B701C6010E94FD0B8FA1E80E3B
:102F6000F11C87FDFA94DDCF059759F285E090E0DA
:102F70009E878D8771C0CE010E94D4088FEF90E0AC
:102F8000111102C081E090E09EA38DA383E090E048
:102F90009E878D87B6CF8DA19EA1112309F457C0BE
:102FA0009595879557C08430910550F5019750F15C
:102FB000CE010E942213E8A4F9A42FA18AA59BA503
:102FC000820F911D27FD9A958E159F0559F10D8D44
:102FD000C880D9806E2DC6010E949D080111809580
:102FE0004DA111114095482301114095B701C6012B
:102FF0000E94FD0B8FA1E80EF11C87FDFA94DDCF36
:103000000597C1F4CE010E94D40881E090E011112F
:1030100002C08FEF90E09EA38DA383E090E09E8797
:103020008D87C6CF8DA19EA1111107C0009709F011
:10303000B7CF06C086E090E09BCF8F3F910539F473
:1030400026E030E03E872D87112309F4A9CF880FB1
:10305000991F81609EA38DA3DF91CF911F910F9146
:10306000FF90EF90DF90CF900895AF92BF92CF92F4
:10307000DF92EF92FF920F931F93CF93DF93EC01B8
:10308000F62EE42E8D859E85222309F4A9C0843076
:10309000910590F50197B8F1CE010E94B610CE01CE
:1030A0000E9422130DA11EA1EE2009F44BC0EE24B4
:1030B000E394F11002C070E8E72ECDA0DEA08CA151
:1030C00090E0019663E0880F991F6A95E1F7081771
:1030D00019070CF06FC0A880B980602FC5010E944D
:1030E0009D089C2D191624F5FF2001F1880F2D8DC8
:1030F00021118E299150F6CF059771F285E090E06D
:103100009E878D8762C087E090E09EA38DA310E02C
:1031100000E02BE030E04CA16BA1888199810E94F6
:10312000D11083E090E09E878D87B6CF8695DFCF64
:10313000B8016C197D09482FC5010E94FD0B0F5F76
:103140001F4FBBCF8CA128E0829FC00111249C019E
:10315000201B310B8901085F1F4FEE24E394F1100F
:1031600002C050E8E52ECDA0DEA08BA138E0839F01
:10317000C001112408171907ECF0A880B980602F4E
:10318000C5010E949D089C2D191654F4FF2031F0B2
:10319000880F2D8D21118E299150F6CF8695F9CF6C
:1031A000B8016C0D7D1D482FC5010E94FD0B01501B
:1031B0001109D9CF8DA19EA1009721F425E030E01F
:1031C0003E872D8701979EA38DA3DF91CF911F91FD
:1031D0000F91FF90EF90DF90CF90BF90AF90089548
:1031E0008430910580F5019788F1EE20C1F10CA1A2
:1031F00088E0089F800111240A5F1F4F40E8B42E29
:10320000F11002C0BB24B394C880D9808BA128E000
:10321000829FC0011124081719070CF450C0602FB9
:10322000C6010E949D08482FFF20B9F046958D8D5C
:1032300081114B29B8016F5F7F4FC6010E94FD0BC2
:1032400001501109E1CF059709F059C01EA21DA236
:1032500083E090E09E878D87C8CF440FE8CF0BA115
:1032600038E0039F800111240F5F1F4F30E8B32E19
:10327000F11002C0BB24B394C880D9808CA190E027
:10328000019623E0880F991F2A95E1F7081719077F
:10329000B4F4602FC6010E949D08482FFF2069F0FA
:1032A00046958D8D81114B29B80161507109C60178
:1032B0000E94FD0B0F5F1F4FDFCF440FF2CF8881BD
:1032C00099814D8D4195EE2091F06BA128E0629F90
:1032D000B00111240E94FD0B8DA19EA187309105A4
:1032E00021F426E030E03E872D8701966CCF6CA15B
:1032F00038E0639FB0011124695F7F4FEBCF86E018
:1033000090E0FECECF92DF92FF920F931F93CF9368
:10331000DF93EC01F62E8D859E85442309F484C04D
:103320008330910570F0039751F185E090E09E871E
:103330008D87DF91CF911F910F91FF90DF90CF90FC
:1033400008951EA21DA2CE010E94B610FF2099F082
:103350004D8D11E04127419569897A89888199814C
:103360000E94FD0B4D8D412741956B897C89888199
:1033700099810E94FD0B83E090E09E878D87CE01AE
:103380000E94B610CE010E9422130B891C898989E4
:103390009A89801B910B97FD01966C01D594C79477
:1033A0008DA19EA1080F191FC816D9060CF4BDCF18
:1033B0000F5F1F4F69897A898DA19EA19B01281BF0
:1033C000390B0217130744F44D8D4195B8018881DC
:1033D00099810E94FD0BECCF01969EA38DA3FF2047
:1033E00009F4A7CFC816D9060CF4A3CF4D8D11E070
:1033F00041274195681B790B888199810E94FD0BBB
:103400004D8D412741956B897C898DA19EA1680FC7
:10341000791F88819981DF91CF911F910F91FF9042
:10342000DF90CF900C94FD0B83309105D1F1A0F586
:103430000197A0F189899A892B893C89821B930B7A
:1034400097FD0196959587959EA38DA3CE010E9429
:10345000B610CE010E942213FF20D9F04D8D11E04D
:103460004127419569897A898DA19EA1681B790BB5
:10347000888199810E94FD0B4D8D412741956B8973
:103480007C898DA19EA1680F791F888199810E94F6
:10349000FD0B83E090E04BCF059761F286E090E072
:1034A00046CF8DA19EA197FDF9CF4D8D419569899C
:1034B0007A89681B790B888199810E94FD0B4D8D5B
:1034C00041956B897C898DA19EA1680F791F8881A8
:1034D00099810E94FD0B8DA19EA101979EA38DA3B2
:1034E000FF2009F426CF97FD24CF4D8D11E0412711
:1034F000419569897A897ECF8F929F92AF92BF92D0
:10350000CF92DF92EF92FF920F931F93CF93DF93AF
:10351000EC01F62E8D859E85442309F4E0C08E01D2
:10352000095C1F4F35E0C32ED12C82309105E9F0A4
:1035300050F08330910509F441C0049709F4A8C004
:1035400085E090E00FC0BE01695C7F4FCE010E9414
:10355000AF12811103C086E090E004C019AE18AE2E
:1035600083E090E09E878D870DC01FAA88A98823DD
:10357000B1F0DE86CD868D859E852FA9211116C0DE
:10358000059799F7DF91CF911F910F91FF90EF90E1
:10359000DF90CF90BF90AF909F908F900895B8012B
:1035A000CE010E946B128111E6CFE3CF059751F354
:1035B00019AE18AE83E090E09E878D878FA988238F
:1035C00029F121E02F2530E04CA16BA18881998160
:1035D0000E94540F888199816D8D2CA93DA948AD19
:1035E00059AD662301F1BA016F5F7F4F79AF68AFC4
:1035F000240F351FF90140814095FF20F1F06BA1A8
:10360000F8E06F9FB00111240E94FD0B2FA988AD37
:1036100099AD2817190609F0B5CF88A9811115C0F1
:1036200082E090E09FCFBA016F5F7F4F79AF68AFC4
:10363000240F351FF9014081E0CF6CA128E0629F83
:10364000B0011124695F7F4FDFCF29893A89FF20BC
:10365000B1F08F859889A901481B590BCA010196C1
:103660002BA158E0259F80199109112499AF88AFAB
:10367000181619060CF064CF84E090E073CF8CA18B
:10368000E8E08E9FC00111240796821B930BEECFBA
:1036900021E0262730E04CA16BA1888199810E940E
:1036A000540F888199814D8D4195FF2081F06BA148
:1036B000F8E06F9FB00111240E94FD0B88AD99AD19
:1036C000019799AF88AF892B09F05CCF39CF6CA1F6
:1036D00028E0629FB0011124695F7F4FEDCF8430F5
:1036E000910539F0059709F036CF84E090E09E8788
:1036F0008D8721E02F2530E04CA16BA18881998135
:103700000E94540F888199814D8D4195FF2009F4C5
:1037100045C06BA138E0639FB00111240E94FD0BEE
:103720000CA110E0ABA0B12C6801CA18DB088FEF28
:10373000C81AD80A23E0CC0CDD1C2A95E1F78E8D3F
:103740009F8D009721F08C159D0508F46C010F5F8B
:103750001F4F83E0000F111F8A95E1F793E0AA0C39
:10376000BB1C9A95E1F7FF2021F145017401EA188D
:10377000FB0880169106DCF5682D888199810E94EE
:103780009D0890E02D8D222389F02FEF30E08217E5
:10379000930769F5EFEF8E1A9E0AE8CF6CA158E007
:1037A000659FB0011124695F7F4FB8CF30E020E002
:1037B000EECF01501109F12CE12C0A151B05BCF0CC
:1037C000602F888199810E949D0890E02D8D222391
:1037D00059F02FEF30E08217930749F40150110997
:1037E000FFEFEF1AFF0AE9CF30E020E0F4CFEC144E
:1037F000FD0408F0B0CEC6CE2F923F924F925F925A
:103800006F927F928F929F92AF92BF92CF92DF92F0
:10381000EF92FF920F931F93CF93DF93CDB7DEB755
:103820002B970FB6F894DEBF0FBECDBF9B838A8364
:1038300004969D838C8350E040E06AE070E00E9433
:103840007211212C198206E010E0E5E04E2E512C79
:10385000F3E06F2E712CAA81BB8198968C9198977A
:10386000281610F00C94D3249596ED91FC9124E445
:10387000229EE00DF11D1124FB87EA8712A28585A7
:1038800096858630910511F40C94A424248D22236E
:10389000C9F0C780D084F12CE12C0597C9F00E94B3
:1038A0005006EA85FB8583809480A580B6806819E0
:1038B00079098A099B096C157D058E059F0518F508
:1038C00080E098C1AA85BB851996CD90DC90E3CFA6
:1038D0000E945006AA85BB8513968D909D90AD9051
:1038E000BC901697AB01BC01481959096A097B09BC
:1038F0001B968D919C91B0E0A0E0481759076A078C
:103900007B0768F6DDCFEA85FB8592809110D8CFE2
:103910000E945006AA85BB8513966D937D938D9367
:103920009C93169781E092968C9392979C96AD907B
:10393000BC909D97A114B10409F452C11D968D91BC
:103940009C91009709F433C0069709F449C1AA85F0
:10395000BB855C963C905C97332009F4F6C0589682
:10396000ED91FC913197EC31F10508F093C3E554EA
:10397000F34E0C945930CF1DD81DFF1D021E091E99
:10398000DB220C1E821F4D209021DA201A2258249F
:103990005F246924622472246B2474247B247E2493
:1039A000852488249024932497249A24A124EA85AA
:1039B000FB85B7A6A6A6E4A0F8E0EF9E700111244F
:1039C0009701295F3F4F7901AA85BB8593968C911A
:1039D000B8E08B9FE018F1081124EFEFEE1AFE0A11
:1039E000D12CC12CD5016D915D016623C1F0EA8512
:1039F000FB8524A935A970E043A9CF010E94B2112B
:103A000090E0C80ED91E892B69F3D5018C918823CB
:103A100049F3EA85FB8586A9C80ED11CE3CFAA85A8
:103A2000BB855096DC92CE921F9756968D919C91B5
:103A30008130910509F455C028F0029771F199245D
:103A400093941DC0EA85FB8584A190E0019673E004
:103A5000880F991F7A95E1F79C0121503109328B2B
:103A6000218BEC14FD0490F483A1F8E08F9FC0013A
:103A70001124AA85BB8554969C938E93539781E01D
:103A80009826EA85FB85958A848F61CF8C199D09DC
:103A9000EA85FB85948B838BD2CFAA85BB859396D1
:103AA0008C91B8E08B9FC0011124EA85FB85948B33
:103AB000838BEC14FD0468F484A1F8E08F9FC001AF
:103AC00011240796AA85BB8552969C938E93519795
:103AD000D6CF0197C80ED91EEA85FB85D28AC18A46
:103AE000AECFAA85BB8593962C91B8E02B9F900111
:103AF0001124EC14FD0498F4EA85FB8584A1F8E018
:103B00008F9FC00111240796AA85BB8552969C936E
:103B10008E93519754963C932E935397B0CFEC18B5
:103B2000FD08F694E794E20EF31EEA85FB85F48A1D
:103B3000E38AF1E0CF1AD108CE0CDF1CAA85BB8541
:103B40005296DC92CE9251977ACFAA85BB855A962F
:103B5000ED91FC913197EC31F10508F09BC2ED54E9
:103B6000F24E0C945930BF20D81DFF1D021E091EB5
:103B7000DB220C1E821F4D209021DA201A225824AD
:103B80005F246924622472246B2474247B247E24A1
:103B9000852488249024932497249A24A1248A8518
:103BA0009B850E942213EA85FB855686458606C0C2
:103BB000432D61E08A859B850E943714AA85BB85C9
:103BC0005C968C915C971D962D913C91882329F0F1
:103BD00081E02530310509F480E0EA85FB85848F9A
:103BE00081E0AA85BB851D962D913C91263031053B
:103BF00009F066CEB981B82BB98323942CCE432D1E
:103C000060E0D8CF432D61E08A859B850E947C1AB5
:103C1000D5CF432D60E0F8CFEA85FB858585968575
:103C2000332009F4EAC07F01F7E3EF0EF11C823084
:103C30009105A1F130F0039709F45BC0AA85BB851B
:103C400066C26A857B85695C7F4F8A859B850E94F9
:103C5000AF12811103C0AA85BB859CC68A859B854E
:103C60000E94B610EA85FB8511AE10AE83A1F8E084
:103C70008F9FC0011124AA85BB8596969C938E9335
:103C8000959751968D919C9152979B969C938E936C
:103C90009A971E967C926E921D9790CFEA85FB852F
:103CA00017AA80A9882381F0AA85BB851E965C92FD
:103CB0004E921D97EA85FB858585968527A921115A
:103CC0000BC0059759F77ACFB7018A859B850E946B
:103CD0006B128111EFCFE8CF059709F46FCFAA855A
:103CE000BB85D9961C921E92D8971E967C926E9296
:103CF0001D97EA85FB8565A176A182A593A504A8F9
:103D0000F5A9E02DAA85BB85D8962D913C91D99730
:103D1000E20FF31F40816817790751F48D919C9150
:103D200011975D962C91211140950E94FD0B3BCF80
:103D3000411135C0AA85BB8596969C938E93959725
:103D4000EA85FB8585A196A122A533A58217930755
:103D5000C1F420AD31AD43A1F8E04F9FA001112483
:103D6000AA85BB8596965C934E9395972F5F3F4FA0
:103D7000D9963C932E93D89701979B969C938E93BC
:103D80009A97EA85FB8527A980AD91AD281719067A
:103D900009F014CF82E090E0968785870FCFEA85FF
:103DA000FB85458D4195808191810E94FD0BAA85FF
:103DB000BB8595966D917C9196976F5F7F4F969698
:103DC0007C936E9395978D919C9111975D96EC9154
:103DD0005D97D4962D913C91D597D8964D915C9155
:103DE000240F351FEE2331F0F901408140950E94E8
:103DF000FD0BA6CFD9014C91FACF8130910508F483
:103E00002ACF8430910568F0059709F024CFEA8520
:103E1000FB858189928993A782A796A385A376863D
:103E20006586AA85BB85CD90DC9011975D968C91B7
:103E300088248A94912C811102C0912C812CEA85CE
:103E4000FB85A388B488AA85BB859596ED90FC90E8
:103E50006E2DC6010E949D08EA85FB8522A533A52B
:103E60008815190451F42A153B053CF0C901019746
:103E700093A782A736A325A3E6CF2F5F3F4F2A152E
:103E80003B050CF4E8CEEA85FB8524A1F8E02F9FE2
:103E900090011124295F3F4FE216F3063CF4B7016D
:103EA0006F5F7F4F482FC6010E94FD0BAA85BB851F
:103EB0005D964C915D97419595966D917C91969705
:103EC0008D919C910E94FD0BEA85FB8525A136A171
:103ED0002F5F3F4F36A325A384A190E0019643E0D6
:103EE000880F991F4A95E1F72817390709F066CE20
:103EF00082A593A59C012150310933A722A796A33F
:103F000085A35CCEEA85FB8585859685332009F4FB
:103F100067C08430910508F042C0019708F443C09F
:103F20008A859B850E94B6108A859B850E942213F4
:103F3000EA85FB8593A0990C990C990C88248394AD
:103F4000AA85BB859596ED90FC90969794968C915A
:103F5000949790E0019623E0880F991F2A95E1F746
:103F6000A92CB12CA816B90674F5CD90DC90692D5A
:103F7000C6010E949D08482F50E087E090E08E190E
:103F80009F093320D9F002C0559547958A95E2F7ED
:103F9000B501C6010E94FD0B38249394D1CF05973B
:103FA00009F4BECF00CEAA85BB8596961C921E92C0
:103FB00095971E967C926E921D97B2CF01C0440FCA
:103FC0008A95EAF7E5CFBFEFEB1AFB0AEA85FB8596
:103FD000F6A2E5A2F8E0EF16F10409F0EFCD2ECE3F
:103FE0008430910598F50197A0F1AA85BB85939639
:103FF0009C90990C990C990C8824839433243394C5
:10400000EA85FB85E5A0F6A084A190E00196B3E0E7
:10401000880F991FBA95E1F7A92CB12CA816B906FB
:104020005CF5C080D180692DC6010E949D08482F93
:1040300050E08820D9F001C0440FEA94EAF7B501B6
:10404000C6010E94FD0B83249394DACF059709F0F3
:1040500002CEE1E0F0E0AA85BB859696FC93EE9354
:1040600095971E967C926E921D97BFCF02C0559574
:104070004795EA94E2F7E3CFFFEFEF1AFF0AAA852C
:10408000BB859696FC92EE929597B8E0EB16F104FC
:1040900009F094CDEA85FB8508C4EA85FB85858512
:1040A0009685332009F45AC08430910500F582309A
:1040B000910500F5009781F1019709F0BFCDAA8520
:1040C000BB8595966D917C919697CB0101969696BE
:1040D0009C938E939597CD010E9461118A859B8553
:1040E0000E942213EA85FB857686658667CD059753
:1040F00009F0A4CDAA85BB8595966D917C91969784
:104100009A968D919C919B9786179707ECF41E9633
:104110005C924E921D9752CDAA85BB8596961C92B5
:104120001E92959791968C91919790E09B969C9377
:104130008E939A97CD010E94B61021E030E0EA8577
:10414000FB85368725873ACDCB010196EA85FB852D
:1041500096A385A3CF010E94611130CD84309105D3
:1041600098F40197A0F0EA85FB8565A176A1CB01C3
:10417000019777FFEBCF62A5CF010E9461118A857D
:104180009B850E94B61067CD059709F064CDEA853E
:10419000FB8561A1862F90E093A782A796A385A3B4
:1041A000CF010E9461118A859B850E942213AA85F6
:1041B000BB856FCDEA85FB85858596858230910527
:1041C00009F45DC048F4009769F00197B9F0311027
:1041D0002EC186E090E0E6C08330910509F492C0DC
:1041E0000597A9F7AA85BB8596961C921E9295976E
:1041F000E1E0F0E01E96FC93EE931D97AA85BB8547
:1042000095968D919C919697019696969C938E93F8
:1042100095979396EC90B8E0EB9E70011124DD2405
:10422000D394EA85FB8525A136A184A190E001966F
:10423000A3E0880F991FAA95E1F7E816F90694F410
:10424000C701837099278217930744F4458D4D2544
:104250004195B701808191810E94FD0BFFEFEF1A1C
:10426000FF0ADFCF82E090E02430310509F0A6CCD0
:10427000AA85BB851E969C938E931D979FCC8A859D
:104280009B850E94B610332021F08A859B850E9471
:104290002213EA85FB8585A196A1019796A385A3A4
:1042A000E3A0F8E0EF9E70011124DD24D394AA85E9
:1042B000BB8595962D913C91969794968C91949769
:1042C00090E00196F3E0880F991FFA95E1F7E81660
:1042D000F906A4F4C701837099278217930754F451
:1042E0005D964C915D974D254195B7018D919C91BF
:1042F0000E94FD0BBFEFEB1AFB0AD9CF232B09F06D
:104300005DCCF0CE8A859B850E94B610332009F4DF
:1043100012C18A859B850E94221385E090E0A8CF78
:10432000AA85BB851D968D919C918230910509F4DB
:104330003CC038F08330910509F46EC0059709F050
:10434000F8C0EA85FB85E3A0F8E0EF9E7001112438
:10435000AA85BB8594968C91949790E00196E3E0B2
:10436000880F991FEA95E1F7E816F906CCF45D96F7
:10437000BC905D97CD90DC906E2DC6010E949D088B
:10438000B110809545E5E0FE4AEA482BB110409512
:10439000B701C6010E94FD0BBFEFEB1AFB0AD8CF95
:1043A00082E090E0EA85FB85F7CC8A859B850E94B8
:1043B000B610332021F08A859B850E942213AA859E
:1043C000BB859396EC90B8E0EB9E70011124EA85D2
:1043D000FB8584A190E0019673E0880F991F7A9580
:1043E000E1F7E816F9060CF0E2CEB58CC080D1807A
:1043F0006E2DC6010E949D08B11080954AEAE0FE2C
:1044000045E5482BB1104095B701C6010E94FD0B50
:10441000FFEFEF1AFF0ADBCF8A859B850E94B6105B
:10442000332009F4D6CE8A859B850E94221385E02D
:1044300090E0B8CFEA85FB85858596858430910527
:1044400008F07CC0019708F47CC0EA85FB8516A2C1
:1044500015A20E94932B4B015C010E94932B6E834B
:104460007F8388879987AA85BB859596CD90DC90B8
:10447000BFEFCB1ADB0AEA85FB85D6A2C5A2C50130
:10448000B4012BE030E040E050E00E94522F70E099
:104490009B012E5C3C4F7901D901BC906E817F81DC
:1044A0008885998528E030E040E050E00E94522F56
:1044B0008B2D90E0062E02C0959587950A94E2F721
:1044C00080FF05C0B8E8CB16B3E1DB0614F281E04B
:1044D00090E001C0880F6A95EAF7B82AF701B08228
:1044E0008A859B850E942213AA85BB8596961C927D
:1044F0001E9295979396BC90BB0CBB0CBB0CEA85A7
:10450000FB8584A190E0019663E0880F991F6A956E
:10451000E1F7CB2CD12CC816D90614F1E2E3F3E075
:1045200081918F3F09F04ACB2AE333E02E173F07F2
:10453000B9F73110F2CE86E090E09ACE059709F0F7
:1045400046CEE2E3F3E011922DE333E02E173F076E
:10455000D1F7AA85BB851E967C926E921D9775CF6A
:10456000AA85BB85ED90FC906B2DC7010E949D082C
:10457000AA85BB859596ED91FC91EE5CFC4F408140
:10458000311001C040954823B601C7010E94FD0BC0
:10459000EA85FB8585A196A101968B30910521F0D6
:1045A00096A385A3B394ABCFAA85BB8596961C92A0
:1045B0001E929597F7CFAA85BB851D968D919C91EC
:1045C0003110C8C18430910508F0C0C1019778F559
:1045D0008A859B850E94D408EA85FB8580A591A5E4
:1045E00022A533A58217930724F431A720A793A708
:1045F00082A7AA85BB85DE968D919C91DF97892B3A
:1046000009F4C8C1EA85FB8583A1F8E08F9FC0014A
:1046100011240197AA85BB8596969C938E939597B6
:1046200097961C9297971E967C926E921D978A85FC
:104630009B850E942213EA85FB8585A196A10196A0
:1046400096A385A3F12C6F01F1E4CF0ED11CD60106
:104650002C91EA85FB8565A176A1822F90E0F21668
:1046600008F0E1C04F2D50E0641B750B84A190E071
:10467000019633E0880F991F3A95E1F7681779079B
:104680002CF583A1F8E08F9FC001112468177907EA
:10469000ECF0AA85BB858D919C91119797963C91E2
:1046A0009797320390011124420F531FDE96ED912C
:1046B000FC91DF97E40FF51F5D962C91222309F4FE
:1046C000B0C0E4914E2F40950E94FD0BF394BFCFF4
:1046D000EA85FB8517A284A190E0019653E0880F3C
:1046E000991F5A95E1F796A385A3768665868A85F4
:1046F0009B850E942213AA85BB8595968D919C91DE
:104700009697019796969C938E939597F12C6D01B1
:10471000B0E4CB0ED11CF6012081AA85BB8595960D
:104720006D917C919697F21608F03AC0EF2DF0E06B
:104730006E0F7F1F94968C91949790E0019643E0C2
:10474000880F991F4A95E1F7681779072CF593961A
:104750008C91B8E08B9FC001112468177907E4F0B1
:10476000AA85BB858D919C91119797964C919797AF
:104770004203A00111244E0F5F1FDC96ED91FC91C6
:10478000DD97E40FF51F5D962C91222339F0E4911B
:104790004E2F40950E94FD0BF394BDCF4491FACF6C
:1047A0007B01B1E0EB1AF108EA85FB8582A593A5B0
:1047B000E816F9065CF0458D4195B701808191813D
:1047C0000E94FD0BF1E0EF1AF108EECFAA85BB8540
:1047D00097968C9197978F5F97968C939797082EC3
:1047E000000C990BFD01EE5BFF4F20812817190685
:1047F00009F014F497961C92EA85FB8583A1F8E0F2
:104800008F9FC0011124D6012C91821B9109019721
:10481000EA85FB8525A136A12817390709F0CEC9FD
:10482000C4C9449151CF7B01E81AF90AEA85FB8596
:1048300082A593A5E816F9065CF0458D4195B70170
:10484000808191810E94FD0BF1E0EF1AF108EECF1B
:10485000AA85BB8597968C9197978F5F97968C9337
:104860009797082E000C990BFD01ED5BFF4F2081FF
:104870002817190609F014F497961C92EA85FB850F
:1048800084A1F8E08F9F90011124295F3F4FD6014A
:104890008C91820F932F911D0196EA85FB8525A1AE
:1048A00036A12817390709F089C91687058786C9EF
:1048B000432D60E08A859B850E9477137FC9432D35
:1048C00061E0F8CF41E0632D8A859B850E94B91590
:1048D00075C940E0F8CF41E0632D8A859B850E9431
:1048E00000156CC940E0F8CF432D60E08A859B85B8
:1048F0000E94551663C9432D61E0F8CF432D60E057
:104900008A859B850E94821959C9432D61E0F8CFA1
:10491000232D41E061E08A859B850E9435184EC9B0
:10492000232D40E0F7CF232D41E060E0F4CF232D8D
:1049300040E0FBCF432D61E08A859B850E946C1788
:104940003DC9432D60E0F8CF81E054C9059709F4D3
:104950003FCE81C98430910510F5019708F0C7CE8C
:104960008A859B850E94D408EA85FB8580A591A550
:1049700022A533A58217930724F431A720A793A774
:1049800082A7AA85BB85DC968D919C91DD97892BAA
:1049900009F09ECE1E961C930E931D970FC9059786
:1049A00009F4A5CE4BC941E050E06AE070E08C818B
:1049B0009D810E94721189812B960FB6F894DEBFFB
:1049C0000FBECDBFDF91CF911F910F91FF90EF9060
:1049D000DF90CF90BF90AF909F908F907F906F901F
:1049E0005F904F903F902F900895AF92BF92CF92DB
:1049F000DF92EF92FF920F931F93CF93DF93EC011F
:104A00005B0188A541E050E0882321F0EDA1FEA1E3
:104A100046895789D12CC12CEE24E394F12C10E067
:104A200000E030E020E0B501CE010E949F03CE01FE
:104A30000E94FC1B8111FBCFF50101900020E9F7DA
:104A4000CF0101978A199B09DF91CF911F910F9197
:104A5000FF90EF90DF90CF90BF90AF9008954F926E
:104A60005F926F927F928F929F92AF92BF92CF92FE
:104A7000DF92EF92FF920F931F93CF93DF93CDB707
:104A8000DEB7CC55D1400FB6F894DEBF0FBECDBF18
:104A90000E945C06882349F0809142058B3028F003
:104AA0008D3050F085518230C0F1812C912C20EC5A
:104AB000A22E2FE7B22E1EC060913D0570E090E05F
:104AC00080E00E94592E2DEC3CEC4CEC5DE30E9402
:104AD000942E6B017C0160913C0570E090E080E0D9
:104AE0000E94592E9B01AC01C701B6010E94ED2F17
:104AF0004B015C010E945C06882341F080914205D5
:104B00008C3009F4B2C1D8F48B3091F1C12CD12C86
:104B100080ECE82E8FE7F82E55C060913C0570912F
:104B20003D0576276727762790E080E00E94572E84
:104B30002DEC3CEC4CEC5DE30E94942ED9CF8551DA
:104B4000823020F710913E05612F70E0762F6627A6
:104B500066277F7780913F05682B90E080E00E9478
:104B6000572E2DEC3CEC4CEC5DE30E94942E99C149
:104B700060913E0570E090E080E00E94572E6B014E
:104B80007C0110913F0517FF0AC0AC019B0160E05A
:104B900070E080E89FEB0E94EC2F6B017C011F709E
:104BA000612F70E090E080E00E94592E2DEC3CECEB
:104BB0004CEC5DE30E94942EA70196010E94ED2F1C
:104BC0006B017C0185E480937C0080917A00806495
:104BD00080937A0080917A0086FDFCCF90917800D6
:104BE00080917900892798278927909331038093B2
:104BF000300385E794E00E94CD04892B69F101E040
:104C000011E00E94500660937D0470937E048093AF
:104C10007F049093800485E794E00E94AB0497FFA3
:104C20005FC10E94500640907D0450907E046090C9
:104C30007F04709080046419750986099709409073
:104C4000790450907A0460907B0470907C04641521
:104C5000750586059705F8F283E195E00E94FC1B37
:104C6000882309F446C180910001882309F4E9C032
:104C70008EE0EBECF1E0DE01119601900D928A9549
:104C8000E1F7FE013F968EE191E0DF019C011D926C
:104C900021503040E1F7CF5ADE4F19821882C155BA
:104CA000D140CD5ADE4F19821882C355D140CB5A1C
:104CB000DE4F19821882C555D14041E051E0DA013A
:104CC0000D900020E9F7AD014250514061E071E0E4
:104CD000CE018F5A9E4F0E94280A809130039091F6
:104CE0003103C55BDE4F19821882CB54D140C35BC0
:104CF000DE4F19821882CD54D140C15BDE4F19823C
:104D00001882CF54D1408E01035D1E4F4AE0B80196
:104D10000E94EB2BF80101900020E9F73197AF01D9
:104D2000401B510BB801CE01855B9E4F0E94280AA3
:104D3000B501A401CE018B5B9E4F0E94490AB701C9
:104D4000A601CE01815C9E4F0E94490AF8011182A2
:104D50001082138212821582148243E050E067E1D0
:104D600073E0C8010E94280ABE01615C7E4FC80141
:104D70000E94150A6BE173E00E94FF09BE016B5BA4
:104D80007E4F0E94150A61E273E00E94FF09BE0196
:104D9000655B7E4F0E94150A67E273E00E94FF097F
:104DA000BE016F5A7E4F0E94150A7E01F9EAEF1A82
:104DB000FEEFFF0AD70111961C921E9213961C92C9
:104DC0001E92129715961C921E9214978E159F058F
:104DD00059F0FC01608171816115710529F04481F0
:104DE0005581C7010E94280AC8010E94870ACE0186
:104DF000815C9E4F0E94870ACE018B5B9E4F0E9472
:104E0000870ACE01855B9E4F0E94870ACE018F5A8A
:104E10009E4F0E94870AD70114960D911C9101158F
:104E2000110509F047C01982BE016F5F7F4F89E409
:104E300093E00E94513281E080930001C7010E94FB
:104E4000870A209138053091390580E094E440913B
:104E50003B05841708F04DC0F901899FE00DF11D55
:104E60001124168615868F5FF2CF10913E05612FB3
:104E700070E090E080E00E94572E6B017C01609111
:104E80003F056F7070E090E080E00E94592E2DEC9D
:104E90003CEC4CEC5DE30E94942EA70196010E942D
:104EA000ED2F6B017C0117FF8DCEF7FAF094F7F828
:104EB000F09488CE0B32B1E01B0710F00BE211E04A
:104EC000F70160817181A801CE0101960E945832DC
:104ED000E1E0F0E0EC0FFD1FE00FF11F1082A4CF26
:104EE000D8018D938D01B1E009311B0709F089CEFE
:104EF000B3CEC45ADE4F0FB6F894DEBF0FBECDBF9F
:104F0000DF91CF911F910F91FF90EF90DF90CF90A5
:104F1000BF90AF909F908F907F906F905F904F90D9
:104F200008951F920F920FB60F9211242F933F9363
:104F30004F935F936F937F938F939F93AF93BF93A1
:104F4000EF93FF9385E794E00E94ED04FF91EF91CA
:104F5000BF91AF919F918F917F916F915F914F9191
:104F60003F912F910F900FBE0F901F9018951F9299
:104F70000F920FB60F9211242F938F939F93EF935D
:104F8000FF93E0918504F09186048081E0918B0489
:104F9000F0918C0482FD1BC0908180918E048F5F04
:104FA0008F7320918F04821741F0E0918E04F0E01E
:104FB000EB58FB4F958F80938E04FF91EF919F915B
:104FC0008F912F910F900FBE0F901F901895808199
:104FD000F4CF1F920F920FB60F9211242F933F938D
:104FE0008F939F93AF93BF93809140039091410320
:104FF000A0914203B091430330913F0323E0230F7C
:105000002D3758F50196A11DB11D20933F038093C4
:10501000400390934103A0934203B09343038091D4
:10502000440390914503A0914603B0914703019634
:10503000A11DB11D8093440390934503A0934603A3
:10504000B0934703BF91AF919F918F913F912F9163
:105050000F900FBE0F901F90189526E8230F029611
:10506000A11DB11DD2CFE5E7F4E01382128288EED4
:1050700093E0A0E0B0E084839583A683B7838BEFB1
:1050800092E09183808385EC90E09587848784EC1F
:1050900090E09787868780EC90E0918B808B81EC05
:1050A00090E0938B828B82EC90E0958B848B86ECE6
:1050B00090E0978B868B118E128E138E148EACE33C
:1050C000B5E082E015968C9315978BE016968C933D
:1050D0001697E4EDF6E0E4911796EC931797E0EC61
:1050E000F6E0E4911896EC93189740E85EE360E0F0
:1050F00070E01D964D935D936D937C935097E3E123
:10510000F5E0138212828DE093E091838083118613
:1051100012868AE0838781E0848722E135E0368742
:10512000258794E09787808F21E030E035832483C2
:1051300086831782108697A30895789484B5826039
:1051400084BD84B5816084BD85B5826085BD85B52B
:10515000816085BD80916E00816080936E001092A9
:105160008100809181008260809381008091810024
:1051700081608093810080918000816080938000B5
:105180008091B10084608093B1008091B000816013
:105190008093B00080917A00846080937A0080913F
:1051A0007A00826080937A0080917A008160809397
:1051B0007A0080917A00806880937A001092C10012
:1051C00062E0809141050E94C8050E945006605D22
:1051D0007740810991096093450570934605809356
:1051E00047059093480587E380934E05E091850439
:1051F000F091860482E08083E0918104F091820442
:105200001082E0918304F09184048FEC80831092EB
:105210008D04E0918904F0918A0486E08083E09116
:105220008704F0918804808180618083E091870405
:10523000F0918804808188608083E0918704F091F8
:105240008804808180688083E0918704F0918804DD
:1052500080818F7D808380911F05882309F4E4C0BD
:10526000CFB7F89480914803811127C0E8ECF6E0AD
:105270008491ECEDF6E09491E82FF0E0EE0FFF1F43
:10528000E058FE4FA591B491EC91E92321F461E03F
:105290008AE00E947C0561E08AE00E94C8058CB526
:1052A00080618CBD8CB580648CBD61E08DE00E9416
:1052B000C80561E08BE00E94C805809148038F5FBC
:1052C00080934803CFBF61E080911E050E94C8050E
:1052D00061E080911E050E947C05109228051092C5
:1052E000270510922A0510922905C091220529E070
:1052F000C29FC00111240E945F30909324058093C7
:1053000023058C2F90E0880F991F0E945F309093A7
:1053100026058093250580912D0590912E058A58AC
:10532000914051F08AE891E090932E0580932D05ED
:1053300087E195E00E94620750E040E063E070E0A2
:1053400087E195E00E94721147E050E061E070E073
:1053500087E195E00E94721147E050E062E070E062
:1053600087E195E00E94721150E040E064E070E057
:1053700087E195E00E94721140912205415060E062
:1053800087E195E00E942C0F50E040E070E060E083
:1053900087E195E00E947211C1E0C0933B0586E46D
:1053A00090E00E945F30FC0181E090E09183808377
:1053B000138212821482158216821782108686E06A
:1053C00090E0908B878711A210A212A217A616A6B2
:1053D00014AA13AA15AA17AA16AAC0AF15AE14AE1E
:1053E00017AE16AEDF01A05CBF4F1D921C92329625
:1053F000F0933905E0933805C0E0D4E407E115E007
:1054000080913B05E0913805F0913905C817B8F453
:10541000CF01CD9F800D911D1124FC0111830083CC
:105420000E948F0ACF5FECCF61E080911C050E9443
:10543000C80561E080911D050E94C80544CF8130F8
:1054400041F420913A059FEF920F921710F413A2A6
:1054500094A3DF0190E02AE030E0891761F018960C
:105460003C932E9317971A963C932E9319979F5F10
:10547000AC5BBF4FF2CF8823C9F0878190854AE0AB
:10548000489F9001499F300D112480E094E44091A1
:105490003B05841770F4DF01899FA00DB11D112415
:1054A0001C963C932E931B978F5FF1CF90E080E08A
:1054B000E6CFC0E014E4D1E04091380550913905C1
:1054C00080913B05C81758F4CA01C19F800D911DFA
:1054D0001124FC01D6AB0E948F0ACF5FEDCF90E084
:1054E00084E420913B05921748F4FA01989FE00D5F
:1054F000F11D1124178E168E9F5FF3CF90E084E488
:1055000020913B05FA01921768F090E061E070E0AD
:10551000921781F0718F608F138E128E9F5FEC5BFC
:10552000FF4FF6CF989FE00DF11D1124178A168AC0
:105530009F5FE6CF90E084E420913B05921740F412
:10554000FA01989FE00DF11D1124158E9F5FF4CF95
:1055500084E0C82ED12C94E0E92EF12C10E000E07C
:1055600028E230E050E040E069E473E083E195E058
:105570000E949F03C0E0D0E00E942F252097E1F316
:105580000E94D9048823C1F30E940000F5CF0F9335
:105590001F93CF93DF938DE093E090931405809356
:1055A0001305C0913805D0913905209759F1FE01B6
:1055B00032972081318144E4429FC001439F900D86
:1055C0001124C80FD91F80913805909139058C1787
:1055D0009D07A1F0C454D10989A99AA9009739F06F
:1055E000FC01048115810E94FB30C801F7CF8CA912
:1055F0009DA9009741F30E94FB30E5CFCE010297B1
:105600000E94FB3080911F05882399F09FB7F89482
:1056100080914803882319F081508093480380913A
:105620004803811105C08CB58F7B8CBD10923E0361
:105630009FBF80912305909124050E94FB308091AB
:10564000250590912605DF91CF911F910F910C9424
:10565000FB30EF920F931F93CF93DF93E80134E079
:1056600047FD34E1042E000C550B57FF03C0519544
:1056700041955109E32E022F242FAE010E94102CD8
:10568000CE01DF91CF911F910F91EF9008958F92EE
:105690009F92AF92BF92CF92DF92EF92FF92CF9301
:1056A000DF93EC01688179818A819B8161157105A5
:1056B0008105910521F464E279ED8BE597E02DE118
:1056C00033EF41E050E00E94522F49015A019B0103
:1056D000AC01A7EAB1E40E94712F6B017C01ACEE32
:1056E000B4EFA50194010E947F2FC60ED71EE81EBD
:1056F000F91EF7FE06C081E0C81AD108E10880E86B
:10570000F80AC882D982EA82FB82C701B6019F7774
:10571000DF91CF91FF90EF90DF90CF90BF90AF904F
:105720009F908F9008958F929F92AF92BF92CF9249
:10573000DF92EF92FF926091C1017091C20180915E
:10574000C3019091C401611571058105910521F492
:1057500064E279ED8BE597E02DE133EF41E050E035
:105760000E94522F49015A019B01AC01A7EAB1E402
:105770000E94712F6B017C01ACEEB4EFA501940186
:105780000E947F2FC60ED71EE81EF91EF7FE06C028
:1057900081E0C81AD108E10880E8F80AC092C10186
:1057A000D092C201E092C301F092C401C701B601D8
:1057B0009F77FF90EF90DF90CF90BF90AF909F903A
:1057C0008F9008956093C1017093C2018093C301CB
:1057D0009093C4010895BB274A3031F4992322F4F1
:1057E000BDE2909581959F4F0C94F72BBB27FB0151
:1057F0005527AA27880F991FAA1FA41710F0A41BCA
:1058000083955051B9F7A05DAA3308F0A95DA19323
:10581000009779F7B111B1931192CB010C94472EF7
:10582000A9E0B0E0E6E1FCE20C948A2F6A01F22ED6
:10583000B02E102FFBE3AF2EA01608F41BE31F5F62
:10584000012F27E0AE014F5F5F4F0E946F2DBC011B
:105850008981982F9970913009F43FC09BE2E1FC57
:1058600004C09E2D9170E0FC3AC05E2D5071E82F6F
:10587000E87083FF46C084E0911101C083E0EF2D02
:10588000E81B8F1508F0E0E0D6018E2F20E25523AB
:1058900051F1992329F0D6019C93C60101966C0120
:1058A00096012D5F3F4FE2FE24C08EE4D6018C931B
:1058B00091E411969C93119712968C93D9018E2F97
:1058C00090E281111BC0E20FF32FF11D10828EEFC9
:1058D0009FEF2996ECE00C94A62F9DE2C6CF90E2B4
:1058E000C4CF2D9381508111FCCFCE0ED11CE0E0AE
:1058F000D0CF8EE6D6018C9391E6DBCF9D9381507D
:10590000E0CF482F447082FF3DC084E0911101C078
:1059100083E08F1510F4EF2DE81BD6018E2F20E2C7
:10592000552309F1992329F0D6019C93C6010196CC
:105930006C0196012D5F3F4FE2FE1BC089E4D6014A
:105940008C938EE411968C93119786E412968C9327
:10595000D9018E2F90E2882309F4B5CF9D93815011
:10596000FACF2D9381508111FCCFCE0ED11CE0E0F7
:10597000D9CF89E6D6018C938EE611968C93119738
:1059800086E6E4CF9B0177FF02C030E020E0A1E093
:10599000B0E0911102C0B0E0A0E0F9013196AE0F85
:1059A000BF1F8B2C912CBB2009F461C05401EFEF79
:1059B000AE1ABE0AAA0DBB1DFA161B0619F014F08A
:1059C0004F2D4A1B511188C0E3FC59C07601A42F0A
:1059D000B0E2A1114FC0C40ED11C992309F45BC0E1
:1059E00040E0D6011196F60190836D01552309F42C
:1059F00048C0012F060F9A81582F507184FF03C0B1
:105A0000913309F4015010160CF047C0093008F02A
:105A100008E0EEE2FE2E5B01A01AB1088501919428
:105A2000819491082F3F320729F4D601FC92F601A8
:105A300031966F016217730794F1021713077CF513
:105A4000DB01A21BB30BAA24A394B12CAC0EBD1E88
:105A5000AA0DBB1D11968C9121503109D6011196CA
:105A600028153905F4F0F60180836D01DBCFB12CE8
:105A7000A12CA0CFF701B1937F01A150AACF911122
:105A8000B0CFD601942F50E302C05D939150911195
:105A9000FCCFC40ED11C40E0ACCF01E0BACF80E314
:105AA000DBCF6217730731F4963388F4953311F422
:105AB000552369F0F6018083FD01842F90E2811166
:105AC00008C0A40FB11D1C9290E080E002CF81E3DA
:105AD000F1CF91938150F3CF911183CF8ACF2830AA
